{
  "contractName": "Favor",
  "abi": [
    {
      "constant": true,
      "inputs": [
        {
          "name": "",
          "type": "address"
        }
      ],
      "name": "users",
      "outputs": [
        {
          "name": "balance_fvr",
          "type": "uint256"
        }
      ],
      "payable": false,
      "stateMutability": "view",
      "type": "function"
    },
    {
      "anonymous": false,
      "inputs": [
        {
          "indexed": false,
          "name": "_listing_idx",
          "type": "uint256"
        },
        {
          "indexed": false,
          "name": "_user_address",
          "type": "address"
        }
      ],
      "name": "ListingCreated",
      "type": "event"
    },
    {
      "anonymous": false,
      "inputs": [
        {
          "indexed": false,
          "name": "_listing_idx",
          "type": "uint256"
        },
        {
          "indexed": false,
          "name": "_user_address",
          "type": "address"
        }
      ],
      "name": "ListingAccepted",
      "type": "event"
    },
    {
      "anonymous": false,
      "inputs": [
        {
          "indexed": false,
          "name": "_listing_idx",
          "type": "uint256"
        },
        {
          "indexed": false,
          "name": "_user_address",
          "type": "address"
        }
      ],
      "name": "ListingAbortRequest",
      "type": "event"
    },
    {
      "anonymous": false,
      "inputs": [
        {
          "indexed": false,
          "name": "_listing_idx",
          "type": "uint256"
        }
      ],
      "name": "ListingAborted",
      "type": "event"
    },
    {
      "anonymous": false,
      "inputs": [
        {
          "indexed": false,
          "name": "_listing_idx",
          "type": "uint256"
        },
        {
          "indexed": false,
          "name": "_user_address",
          "type": "address"
        }
      ],
      "name": "ListingCompleteRequest",
      "type": "event"
    },
    {
      "anonymous": false,
      "inputs": [
        {
          "indexed": false,
          "name": "_listing_idx",
          "type": "uint256"
        }
      ],
      "name": "ListingCompleted",
      "type": "event"
    },
    {
      "constant": true,
      "inputs": [
        {
          "name": "_user_addr",
          "type": "address"
        }
      ],
      "name": "getUserBalance",
      "outputs": [
        {
          "name": "",
          "type": "uint256"
        }
      ],
      "payable": false,
      "stateMutability": "view",
      "type": "function"
    },
    {
      "constant": true,
      "inputs": [
        {
          "name": "_listing_idx",
          "type": "uint256"
        }
      ],
      "name": "isListingEmpty",
      "outputs": [
        {
          "name": "",
          "type": "bool"
        }
      ],
      "payable": false,
      "stateMutability": "view",
      "type": "function"
    },
    {
      "constant": true,
      "inputs": [],
      "name": "getNumListings",
      "outputs": [
        {
          "name": "",
          "type": "uint256"
        }
      ],
      "payable": false,
      "stateMutability": "pure",
      "type": "function"
    },
    {
      "constant": true,
      "inputs": [
        {
          "name": "_listing_idx",
          "type": "uint256"
        }
      ],
      "name": "getListingBasicInfo",
      "outputs": [
        {
          "name": "",
          "type": "address"
        },
        {
          "name": "",
          "type": "address"
        },
        {
          "name": "",
          "type": "uint256"
        },
        {
          "name": "",
          "type": "bytes32"
        },
        {
          "name": "",
          "type": "bytes32"
        },
        {
          "name": "",
          "type": "bytes32"
        },
        {
          "name": "",
          "type": "uint256"
        }
      ],
      "payable": false,
      "stateMutability": "view",
      "type": "function"
    },
    {
      "constant": false,
      "inputs": [
        {
          "name": "_listing_idx",
          "type": "uint256"
        },
        {
          "name": "_requester_addr",
          "type": "address"
        },
        {
          "name": "_cost_fvr",
          "type": "uint256"
        },
        {
          "name": "_basic_name",
          "type": "bytes32"
        },
        {
          "name": "_basic_location",
          "type": "bytes32"
        },
        {
          "name": "_basic_description",
          "type": "bytes32"
        },
        {
          "name": "_basic_category",
          "type": "uint256"
        },
        {
          "name": "_extended_name",
          "type": "bytes32"
        },
        {
          "name": "_extended_location",
          "type": "bytes32"
        },
        {
          "name": "_extended_description",
          "type": "bytes32"
        },
        {
          "name": "_extended_category",
          "type": "uint256"
        }
      ],
      "name": "createListingRequest",
      "outputs": [],
      "payable": false,
      "stateMutability": "nonpayable",
      "type": "function"
    },
    {
      "constant": false,
      "inputs": [
        {
          "name": "_listing_idx",
          "type": "uint256"
        },
        {
          "name": "_performer_addr",
          "type": "address"
        },
        {
          "name": "_cost_fvr",
          "type": "uint256"
        },
        {
          "name": "_basic_name",
          "type": "bytes32"
        },
        {
          "name": "_basic_location",
          "type": "bytes32"
        },
        {
          "name": "_basic_description",
          "type": "bytes32"
        },
        {
          "name": "_basic_category",
          "type": "uint256"
        },
        {
          "name": "_extended_name",
          "type": "bytes32"
        },
        {
          "name": "_extended_location",
          "type": "bytes32"
        },
        {
          "name": "_extended_description",
          "type": "bytes32"
        },
        {
          "name": "_extended_category",
          "type": "uint256"
        }
      ],
      "name": "createListingOffer",
      "outputs": [],
      "payable": false,
      "stateMutability": "nonpayable",
      "type": "function"
    },
    {
      "constant": false,
      "inputs": [
        {
          "name": "_listing_idx",
          "type": "uint256"
        },
        {
          "name": "_performer_addr",
          "type": "address"
        }
      ],
      "name": "acceptListingRequest",
      "outputs": [],
      "payable": false,
      "stateMutability": "nonpayable",
      "type": "function"
    },
    {
      "constant": false,
      "inputs": [
        {
          "name": "_listing_idx",
          "type": "uint256"
        },
        {
          "name": "_requeser_addr",
          "type": "address"
        }
      ],
      "name": "acceptListingOffer",
      "outputs": [],
      "payable": false,
      "stateMutability": "nonpayable",
      "type": "function"
    },
    {
      "constant": false,
      "inputs": [
        {
          "name": "_listing_idx",
          "type": "uint256"
        },
        {
          "name": "_user_addres",
          "type": "address"
        }
      ],
      "name": "requestAbortListing",
      "outputs": [],
      "payable": false,
      "stateMutability": "nonpayable",
      "type": "function"
    },
    {
      "constant": false,
      "inputs": [
        {
          "name": "_listing_idx",
          "type": "uint256"
        },
        {
          "name": "_user_addres",
          "type": "address"
        }
      ],
      "name": "requestCompleteListing",
      "outputs": [],
      "payable": false,
      "stateMutability": "nonpayable",
      "type": "function"
    }
  ],
  "bytecode": "0x608060405234801561001057600080fd5b50612183806100206000396000f3fe6080604052600436106100af576000357c0100000000000000000000000000000000000000000000000000000000900463ffffffff1680632ebc0349146100b4578063477348921461010f57806362c7016314610174578063655a378a14610245578063a87430ba14610298578063b186d5bc146102fd578063d0afbad614610358578063e5b756931461040e578063ea166e2114610439578063ede2de2d14610494578063f5942d731461054a575b600080fd5b3480156100c057600080fd5b5061010d600480360360408110156100d757600080fd5b8101908080359060200190929190803573ffffffffffffffffffffffffffffffffffffffff1690602001909291905050506105a5565b005b34801561011b57600080fd5b5061015e6004803603602081101561013257600080fd5b81019080803573ffffffffffffffffffffffffffffffffffffffff169060200190929190505050610822565b6040518082815260200191505060405180910390f35b34801561018057600080fd5b506101ad6004803603602081101561019757600080fd5b810190808035906020019092919050505061086e565b604051808873ffffffffffffffffffffffffffffffffffffffff1673ffffffffffffffffffffffffffffffffffffffff1681526020018773ffffffffffffffffffffffffffffffffffffffff1673ffffffffffffffffffffffffffffffffffffffff16815260200186815260200185815260200184815260200183815260200182815260200197505050505050505060405180910390f35b34801561025157600080fd5b5061027e6004803603602081101561026857600080fd5b810190808035906020019092919050505061097e565b604051808215151515815260200191505060405180910390f35b3480156102a457600080fd5b506102e7600480360360208110156102bb57600080fd5b81019080803573ffffffffffffffffffffffffffffffffffffffff169060200190929190505050610a5a565b6040518082815260200191505060405180910390f35b34801561030957600080fd5b506103566004803603604081101561032057600080fd5b8101908080359060200190929190803573ffffffffffffffffffffffffffffffffffffffff169060200190929190505050610a78565b005b34801561036457600080fd5b5061040c600480360361016081101561037c57600080fd5b8101908080359060200190929190803573ffffffffffffffffffffffffffffffffffffffff169060200190929190803590602001909291908035906020019092919080359060200190929190803590602001909291908035906020019092919080359060200190929190803590602001909291908035906020019092919080359060200190929190505050610e7f565b005b34801561041a57600080fd5b50610423611099565b6040518082815260200191505060405180910390f35b34801561044557600080fd5b506104926004803603604081101561045c57600080fd5b8101908080359060200190929190803573ffffffffffffffffffffffffffffffffffffffff1690602001909291905050506110a2565b005b3480156104a057600080fd5b5061054860048036036101608110156104b857600080fd5b8101908080359060200190929190803573ffffffffffffffffffffffffffffffffffffffff1690602001909291908035906020019092919080359060200190929190803590602001909291908035906020019092919080359060200190929190803590602001909291908035906020019092919080359060200190929190803590602001909291905050506114a9565b005b34801561055657600080fd5b506105a36004803603604081101561056d57600080fd5b8101908080359060200190929190803573ffffffffffffffffffffffffffffffffffffffff1690602001909291905050506116bd565b005b6105ae82611934565b1515610622576040517f08c379a000000000000000000000000000000000000000000000000000000000815260040180806020018281038252601b8152602001807f4e6f7420612070656e64696e67206c697374696e67206f66666572000000000081525060200191505060405180910390fd5b600082600a8110151561063157fe5b600c020160020154600202607860008373ffffffffffffffffffffffffffffffffffffffff1673ffffffffffffffffffffffffffffffffffffffff16815260200190815260200160002060000154101515156106f5576040517f08c379a00000000000000000000000000000000000000000000000000000000081526004018080602001828103825260128152602001807f496e73756666696369656e742066756e6473000000000000000000000000000081525060200191505060405180910390fd5b600082600a8110151561070457fe5b600c020160020154600202607860008373ffffffffffffffffffffffffffffffffffffffff1673ffffffffffffffffffffffffffffffffffffffff1681526020019081526020016000206000016000828254039250508190555080600083600a8110151561076e57fe5b600c020160000160006101000a81548173ffffffffffffffffffffffffffffffffffffffff021916908373ffffffffffffffffffffffffffffffffffffffff1602179055507f79e8ee9a8416df690309052e3bf678a5d4abb1726dd4c80d601c514827493f9d8282604051808381526020018273ffffffffffffffffffffffffffffffffffffffff1673ffffffffffffffffffffffffffffffffffffffff1681526020019250505060405180910390a15050565b6000607860008373ffffffffffffffffffffffffffffffffffffffff1673ffffffffffffffffffffffffffffffffffffffff168152602001908152602001600020600001549050919050565b60008060008060008060008088600a8110151561088757fe5b600c020160000160009054906101000a900473ffffffffffffffffffffffffffffffffffffffff16600089600a811015156108be57fe5b600c020160010160009054906101000a900473ffffffffffffffffffffffffffffffffffffffff1660008a600a811015156108f557fe5b600c02016002015460008b600a8110151561090c57fe5b600c02016004016000015460008c600a8110151561092657fe5b600c02016004016001015460008d600a8110151561094057fe5b600c02016004016002015460008e600a8110151561095a57fe5b600c0201600401600301549650965096509650965096509650919395979092949650565b60008073ffffffffffffffffffffffffffffffffffffffff16600083600a811015156109a657fe5b600c020160000160009054906101000a900473ffffffffffffffffffffffffffffffffffffffff1673ffffffffffffffffffffffffffffffffffffffff16148015610a535750600073ffffffffffffffffffffffffffffffffffffffff16600083600a81101515610a1357fe5b600c020160010160009054906101000a900473ffffffffffffffffffffffffffffffffffffffff1673ffffffffffffffffffffffffffffffffffffffff16145b9050919050565b60786020528060005260406000206000915090508060000154905081565b610a8182611a11565b1515610af5576040517f08c379a00000000000000000000000000000000000000000000000000000000081526004018080602001828103825260158152602001807f4e6f7420616e20616374697665206c697374696e67000000000000000000000081525060200191505060405180910390fd5b610aff8183611aef565b1515610b73576040517f08c379a000000000000000000000000000000000000000000000000000000000815260040180806020018281038252600d8152602001807f4163636573732064656e6965640000000000000000000000000000000000000081525060200191505060405180910390fd5b600082600a81101515610b8257fe5b600c020160000160009054906101000a900473ffffffffffffffffffffffffffffffffffffffff1673ffffffffffffffffffffffffffffffffffffffff168173ffffffffffffffffffffffffffffffffffffffff161415610c11576001600083600a81101515610bee57fe5b600c020160030160026101000a81548160ff021916908315150217905550610c41565b6001600083600a81101515610c2257fe5b600c020160030160036101000a81548160ff0219169083151502179055505b7fd2cd3eeb8d57bc73c84a4c95cc254c2af375928cba3e82f8133b4bb35a9bb29c8282604051808381526020018273ffffffffffffffffffffffffffffffffffffffff1673ffffffffffffffffffffffffffffffffffffffff1681526020019250505060405180910390a1600082600a81101515610cbb57fe5b600c020160030160029054906101000a900460ff168015610cfc5750600082600a81101515610ce657fe5b600c020160030160039054906101000a900460ff165b15610e7b57600082600a81101515610d1057fe5b600c020160020154600202607860008085600a81101515610d2d57fe5b600c020160000160009054906101000a900473ffffffffffffffffffffffffffffffffffffffff1673ffffffffffffffffffffffffffffffffffffffff1673ffffffffffffffffffffffffffffffffffffffff16815260200190815260200160002060000160008282540192505081905550600082600a81101515610dae57fe5b600c020160020154607860008085600a81101515610dc857fe5b600c020160010160009054906101000a900473ffffffffffffffffffffffffffffffffffffffff1673ffffffffffffffffffffffffffffffffffffffff1673ffffffffffffffffffffffffffffffffffffffff16815260200190815260200160002060000160008282540192505081905550610e4382611bc9565b7f4aada3118fffc515fbd862abe0b3ccb5616bbceaa9c0215df3f5bc4729a9c484826040518082815260200191505060405180910390a15b5050565b610e888b61097e565b1515610efc576040517f08c379a00000000000000000000000000000000000000000000000000000000081526004018080602001828103825260118152602001807f4e6f7420656d707479206c697374696e6700000000000000000000000000000081525060200191505060405180910390fd5b88600202607860008c73ffffffffffffffffffffffffffffffffffffffff1673ffffffffffffffffffffffffffffffffffffffff1681526020019081526020016000206000015410151515610fb9576040517f08c379a00000000000000000000000000000000000000000000000000000000081526004018080602001828103825260128152602001807f496e73756666696369656e742066756e6473000000000000000000000000000081525060200191505060405180910390fd5b88600202607860008c73ffffffffffffffffffffffffffffffffffffffff1673ffffffffffffffffffffffffffffffffffffffff168152602001908152602001600020600001600082825403925050819055506110218b8b60008c8c8c8c8c8c8c8c8c611e29565b7f4e0f9c4c10f3933a613addba91d6bd94f54a77e3e2748707ee7fe140aef218c58b8b604051808381526020018273ffffffffffffffffffffffffffffffffffffffff1673ffffffffffffffffffffffffffffffffffffffff1681526020019250505060405180910390a15050505050505050505050565b6000600a905090565b6110ab82611a11565b151561111f576040517f08c379a00000000000000000000000000000000000000000000000000000000081526004018080602001828103825260158152602001807f4e6f7420616e20616374697665206c697374696e67000000000000000000000081525060200191505060405180910390fd5b6111298183611aef565b151561119d576040517f08c379a000000000000000000000000000000000000000000000000000000000815260040180806020018281038252600d8152602001807f4163636573732064656e6965640000000000000000000000000000000000000081525060200191505060405180910390fd5b600082600a811015156111ac57fe5b600c020160000160009054906101000a900473ffffffffffffffffffffffffffffffffffffffff1673ffffffffffffffffffffffffffffffffffffffff168173ffffffffffffffffffffffffffffffffffffffff16141561123b576001600083600a8110151561121857fe5b600c020160030160006101000a81548160ff02191690831515021790555061126b565b6001600083600a8110151561124c57fe5b600c020160030160016101000a81548160ff0219169083151502179055505b7f6aeace90325afc19917f576a8807864b7cb38613d9aac055c464f1cbb910840f8282604051808381526020018273ffffffffffffffffffffffffffffffffffffffff1673ffffffffffffffffffffffffffffffffffffffff1681526020019250505060405180910390a1600082600a811015156112e557fe5b600c020160030160009054906101000a900460ff1680156113265750600082600a8110151561131057fe5b600c020160030160019054906101000a900460ff165b156114a557600082600a8110151561133a57fe5b600c020160020154607860008085600a8110151561135457fe5b600c020160000160009054906101000a900473ffffffffffffffffffffffffffffffffffffffff1673ffffffffffffffffffffffffffffffffffffffff1673ffffffffffffffffffffffffffffffffffffffff16815260200190815260200160002060000160008282540192505081905550600082600a811015156113d557fe5b600c020160020154600202607860008085600a811015156113f257fe5b600c020160010160009054906101000a900473ffffffffffffffffffffffffffffffffffffffff1673ffffffffffffffffffffffffffffffffffffffff1673ffffffffffffffffffffffffffffffffffffffff1681526020019081526020016000206000016000828254019250508190555061146d82611bc9565b7f19c81e6a2e218c59063172f10c45d68ea6c85114dcad15bfa654ee78ff39a157826040518082815260200191505060405180910390a15b5050565b6114b28b61097e565b1515611526576040517f08c379a00000000000000000000000000000000000000000000000000000000081526004018080602001828103825260118152602001807f4e6f7420656d707479206c697374696e6700000000000000000000000000000081525060200191505060405180910390fd5b88607860008c73ffffffffffffffffffffffffffffffffffffffff1673ffffffffffffffffffffffffffffffffffffffff16815260200190815260200160002060000154101515156115e0576040517f08c379a00000000000000000000000000000000000000000000000000000000081526004018080602001828103825260128152602001807f496e73756666696369656e742066756e6473000000000000000000000000000081525060200191505060405180910390fd5b88607860008c73ffffffffffffffffffffffffffffffffffffffff1673ffffffffffffffffffffffffffffffffffffffff168152602001908152602001600020600001600082825403925050819055506116458b60008c8c8c8c8c8c8c8c8c8c611e29565b7f4e0f9c4c10f3933a613addba91d6bd94f54a77e3e2748707ee7fe140aef218c58b8b604051808381526020018273ffffffffffffffffffffffffffffffffffffffff1673ffffffffffffffffffffffffffffffffffffffff1681526020019250505060405180910390a15050505050505050505050565b6116c68261207a565b151561173a576040517f08c379a000000000000000000000000000000000000000000000000000000000815260040180806020018281038252601d8152602001807f4e6f7420612070656e64696e67206c697374696e67207265717565737400000081525060200191505060405180910390fd5b600082600a8110151561174957fe5b600c020160020154607860008373ffffffffffffffffffffffffffffffffffffffff1673ffffffffffffffffffffffffffffffffffffffff168152602001908152602001600020600001541015151561180a576040517f08c379a00000000000000000000000000000000000000000000000000000000081526004018080602001828103825260128152602001807f496e73756666696369656e742066756e6473000000000000000000000000000081525060200191505060405180910390fd5b600082600a8110151561181957fe5b600c020160020154607860008373ffffffffffffffffffffffffffffffffffffffff1673ffffffffffffffffffffffffffffffffffffffff1681526020019081526020016000206000016000828254039250508190555080600083600a8110151561188057fe5b600c020160010160006101000a81548173ffffffffffffffffffffffffffffffffffffffff021916908373ffffffffffffffffffffffffffffffffffffffff1602179055507f79e8ee9a8416df690309052e3bf678a5d4abb1726dd4c80d601c514827493f9d8282604051808381526020018273ffffffffffffffffffffffffffffffffffffffff1673ffffffffffffffffffffffffffffffffffffffff1681526020019250505060405180910390a15050565b60008073ffffffffffffffffffffffffffffffffffffffff16600083600a8110151561195c57fe5b600c020160000160009054906101000a900473ffffffffffffffffffffffffffffffffffffffff1673ffffffffffffffffffffffffffffffffffffffff16148015611a0a5750600073ffffffffffffffffffffffffffffffffffffffff16600083600a811015156119c957fe5b600c020160010160009054906101000a900473ffffffffffffffffffffffffffffffffffffffff1673ffffffffffffffffffffffffffffffffffffffff1614155b9050919050565b60008073ffffffffffffffffffffffffffffffffffffffff16600083600a81101515611a3957fe5b600c020160000160009054906101000a900473ffffffffffffffffffffffffffffffffffffffff1673ffffffffffffffffffffffffffffffffffffffff1614158015611ae85750600073ffffffffffffffffffffffffffffffffffffffff16600083600a81101515611aa757fe5b600c020160010160009054906101000a900473ffffffffffffffffffffffffffffffffffffffff1673ffffffffffffffffffffffffffffffffffffffff1614155b9050919050565b60008082600a81101515611aff57fe5b600c020160000160009054906101000a900473ffffffffffffffffffffffffffffffffffffffff1673ffffffffffffffffffffffffffffffffffffffff168373ffffffffffffffffffffffffffffffffffffffff161480611bc15750600082600a81101515611b6a57fe5b600c020160010160009054906101000a900473ffffffffffffffffffffffffffffffffffffffff1673ffffffffffffffffffffffffffffffffffffffff168373ffffffffffffffffffffffffffffffffffffffff16145b905092915050565b60008082600a81101515611bd957fe5b600c020160000160006101000a81548173ffffffffffffffffffffffffffffffffffffffff021916908373ffffffffffffffffffffffffffffffffffffffff16021790555060008082600a81101515611c2e57fe5b600c020160010160006101000a81548173ffffffffffffffffffffffffffffffffffffffff021916908373ffffffffffffffffffffffffffffffffffffffff16021790555060008082600a81101515611c8357fe5b600c02016002018190555060008082600a81101515611c9e57fe5b600c020160030160006101000a81548160ff02191690831515021790555060008082600a81101515611ccc57fe5b600c020160030160016101000a81548160ff02191690831515021790555060008082600a81101515611cfa57fe5b600c020160030160026101000a81548160ff02191690831515021790555060008082600a81101515611d2857fe5b600c020160030160036101000a81548160ff0219169083151502179055506080604051908101604052806000801916815260200160008019168152602001600080191681526020016000815250600082600a81101515611d8457fe5b600c0201600401600082015181600001556020820151816001015560408201518160020155606082015181600301559050506080604051908101604052806000801916815260200160008019168152602001600080191681526020016000815250600082600a81101515611df457fe5b600c02016008016000820151816000015560208201518160010155604082015181600201556060820151816003015590505050565b8a60008d600a81101515611e3957fe5b600c020160000160006101000a81548173ffffffffffffffffffffffffffffffffffffffff021916908373ffffffffffffffffffffffffffffffffffffffff1602179055508960008d600a81101515611e8e57fe5b600c020160010160006101000a81548173ffffffffffffffffffffffffffffffffffffffff021916908373ffffffffffffffffffffffffffffffffffffffff1602179055508860008d600a81101515611ee357fe5b600c0201600201819055506000808d600a81101515611efe57fe5b600c020160030160006101000a81548160ff0219169083151502179055506000808d600a81101515611f2c57fe5b600c020160030160016101000a81548160ff0219169083151502179055506000808d600a81101515611f5a57fe5b600c020160030160026101000a81548160ff0219169083151502179055506000808d600a81101515611f8857fe5b600c020160030160036101000a81548160ff0219169083151502179055506080604051908101604052808981526020018881526020018781526020018681525060008d600a81101515611fd757fe5b600c0201600401600082015181600001556020820151816001015560408201518160020155606082015181600301559050506080604051908101604052808581526020018481526020018381526020018281525060008d600a8110151561203a57fe5b600c020160080160008201518160000155602082015181600101556040820151816002015560608201518160030155905050505050505050505050505050565b60008073ffffffffffffffffffffffffffffffffffffffff16600083600a811015156120a257fe5b600c020160000160009054906101000a900473ffffffffffffffffffffffffffffffffffffffff1673ffffffffffffffffffffffffffffffffffffffff16141580156121505750600073ffffffffffffffffffffffffffffffffffffffff16600083600a8110151561211057fe5b600c020160010160009054906101000a900473ffffffffffffffffffffffffffffffffffffffff1673ffffffffffffffffffffffffffffffffffffffff16145b905091905056fea165627a7a723058201f3e9212ada288d8bd554abe84093e1400cbbf68f4f5a371c2ee45498e687eb00029",
  "source": "pragma solidity ^0.5.0;\n\ncontract Favor {\n    event ListingCreated(uint _listing_idx, address _user_address);\n    event ListingAccepted(uint _listing_idx, address _user_address);\n    event ListingAbortRequest(uint _listing_idx, address _user_address);\n    event ListingAborted(uint _listing_idx);\n    event ListingCompleteRequest(uint _listing_idx, address _user_address);\n    event ListingCompleted(uint _listing_idx);\n\n    // note: this will be publicly visible on the whole blockchain! are we OK with that?\n    struct ListingMetadata {\n        bytes32 name;\n        bytes32 location;\n        bytes32 description;\n        uint category;\n    }\n\n    struct Listing {\n        address requester;\n        address performer;\n        uint cost_fvr;\n\n        bool complete_requester;\n        bool complete_performer;\n\n        bool abort_requester;\n        bool abort_performer;\n\n        ListingMetadata basic_info;\n        ListingMetadata extended_info;  // todo: this should be hidden from public and only available to requester and performer!\n    }\n\n    struct User {\n        uint balance_fvr;  // fvr\n\n        // // todo:\n        // bool is_old;\n        // uint performed_count;\n        // uint rep;\n    }\n\n    uint constant MAX_NUM_FAVORS = 10;\n    Listing[MAX_NUM_FAVORS] listings;\n\n    mapping(address => User) public users;\n\n    // get user balance\n    function getUserBalance(address _user_addr) external view returns(uint) {\n        return users[_user_addr].balance_fvr;\n    }\n\n    // states of listings\n    function isListingEmpty(uint _listing_idx) public view returns(bool) {\n        return (listings[_listing_idx].requester == address(0)) && (listings[_listing_idx].performer == address(0));\n    }\n\n    function _isListingRequestPending(uint _listing_idx) private view returns(bool) {\n        return (listings[_listing_idx].requester != address(0)) && (listings[_listing_idx].performer == address(0));\n    }\n\n    function _isListingOfferPending(uint _listing_idx) private view returns(bool) {\n        return (listings[_listing_idx].requester == address(0)) && (listings[_listing_idx].performer != address(0));\n    }\n\n    function _isListingActive(uint _listing_idx) private view returns(bool) {\n        return (listings[_listing_idx].requester != address(0)) && (listings[_listing_idx].performer != address(0));\n    }\n\n    // check if user is requester or performer\n    function _isUserInvolved(address _user_address, uint _listing_idx) private view returns(bool) {\n        return (_user_address == listings[_listing_idx].requester) || (_user_address == listings[_listing_idx].performer);\n    }\n\n    // get basic information about listings\n    function getNumListings() external pure returns(uint) {\n        return MAX_NUM_FAVORS;\n    }\n\n    function getListingBasicInfo(uint _listing_idx) external view returns(address,address,uint,bytes32,bytes32,bytes32,uint) {\n        return (listings[_listing_idx].requester,listings[_listing_idx].performer,listings[_listing_idx].cost_fvr,\n                listings[_listing_idx].basic_info.name,listings[_listing_idx].basic_info.location,listings[_listing_idx].basic_info.description,listings[_listing_idx].basic_info.category);\n    }\n\n    // create listings\n    function _createListing(uint _listing_idx, address _requester_addr, address _performer_addr, uint _cost_fvr,\n            bytes32 _basic_name, bytes32 _basic_location, bytes32 _basic_description, uint _basic_category,\n            bytes32 _extended_name, bytes32 _extended_location, bytes32 _extended_description, uint _extended_category) private {\n        listings[_listing_idx].requester = _requester_addr;\n        listings[_listing_idx].performer = _performer_addr;\n        listings[_listing_idx].cost_fvr = _cost_fvr;\n\n        listings[_listing_idx].complete_requester = false;\n        listings[_listing_idx].complete_performer = false;\n\n        listings[_listing_idx].abort_requester = false;\n        listings[_listing_idx].abort_performer = false;\n\n        listings[_listing_idx].basic_info = ListingMetadata(_basic_name,_basic_location,_basic_description,_basic_category);\n        listings[_listing_idx].extended_info = ListingMetadata(_extended_name,_extended_location,_extended_description,_extended_category);\n    }\n\n    function createListingRequest(uint _listing_idx, address _requester_addr, uint _cost_fvr,\n            bytes32 _basic_name, bytes32 _basic_location, bytes32 _basic_description, uint _basic_category,\n            bytes32 _extended_name, bytes32 _extended_location, bytes32 _extended_description, uint _extended_category) external {\n        require(isListingEmpty(_listing_idx),\"Not empty listing\");\n        require(users[_requester_addr].balance_fvr >= 2 * _cost_fvr,\"Insufficient funds\");\n        users[_requester_addr].balance_fvr -= 2 * _cost_fvr;\n        _createListing(_listing_idx,_requester_addr,address(0),_cost_fvr,\n                     _basic_name,_basic_location,_basic_description,_basic_category,\n                     _extended_name,_extended_location,_extended_description,_extended_category);\n        emit ListingCreated(_listing_idx, _requester_addr);\n    }\n\n    function createListingOffer(uint _listing_idx, address _performer_addr, uint _cost_fvr,\n            bytes32 _basic_name, bytes32 _basic_location, bytes32 _basic_description, uint _basic_category,\n            bytes32 _extended_name, bytes32 _extended_location, bytes32 _extended_description, uint _extended_category) external {\n        require(isListingEmpty(_listing_idx),\"Not empty listing\");\n        require(users[_performer_addr].balance_fvr >= _cost_fvr,\"Insufficient funds\");\n        users[_performer_addr].balance_fvr -= _cost_fvr;\n        _createListing(_listing_idx,address(0),_performer_addr,_cost_fvr,\n                     _basic_name,_basic_location,_basic_description,_basic_category,\n                     _extended_name,_extended_location,_extended_description,_extended_category);\n        emit ListingCreated(_listing_idx, _performer_addr);\n    }\n\n    // accept listings\n    function acceptListingRequest(uint _listing_idx, address _performer_addr) external {\n        require(_isListingRequestPending(_listing_idx),\"Not a pending listing request\");\n        require(users[_performer_addr].balance_fvr >= listings[_listing_idx].cost_fvr,\"Insufficient funds\");\n        users[_performer_addr].balance_fvr -= listings[_listing_idx].cost_fvr;\n        listings[_listing_idx].performer = _performer_addr;\n        emit ListingAccepted(_listing_idx, _performer_addr);\n    }\n\n    function acceptListingOffer(uint _listing_idx, address _requeser_addr) external {\n        require(_isListingOfferPending(_listing_idx),\"Not a pending listing offer\");\n        require(users[_requeser_addr].balance_fvr >= 2 * listings[_listing_idx].cost_fvr,\"Insufficient funds\");\n        users[_requeser_addr].balance_fvr -= 2 * listings[_listing_idx].cost_fvr;\n        listings[_listing_idx].requester = _requeser_addr;\n        emit ListingAccepted(_listing_idx, _requeser_addr);\n    }\n\n    // // get detailed info\n    // function getExtendedInfo(address _addr) external view returns(bytes32,bytes32,bytes32,uint) {\n    //     require(_addr == requester || _addr == performer, \"Access denied\");\n    //     return (extended_info.name,extended_info.location,extended_info.description,extended_info.category);\n    // }\n\n    // wipe listing\n    function _wipeListing(uint _listing_idx) private {\n        listings[_listing_idx].requester = address(0);\n        listings[_listing_idx].performer = address(0);\n        listings[_listing_idx].cost_fvr = 0;\n\n        listings[_listing_idx].complete_requester = false;\n        listings[_listing_idx].complete_performer = false;\n\n        listings[_listing_idx].abort_requester = false;\n        listings[_listing_idx].abort_performer = false;\n\n        listings[_listing_idx].basic_info = ListingMetadata(\"\",\"\",\"\",0);\n        listings[_listing_idx].extended_info = ListingMetadata(\"\",\"\",\"\",0);\n    }\n\n    // request for abort\n    function requestAbortListing(uint _listing_idx, address _user_addres) external {\n        require(_isListingActive(_listing_idx),\"Not an active listing\");\n        require(_isUserInvolved(_user_addres, _listing_idx),\"Access denied\");\n\n        // record request\n        if(_user_addres == listings[_listing_idx].requester) {\n            listings[_listing_idx].abort_requester = true;\n        } else {\n            listings[_listing_idx].abort_performer = true;\n        }\n        emit ListingAbortRequest(_listing_idx, _user_addres);\n\n        if(listings[_listing_idx].abort_requester && listings[_listing_idx].abort_performer) {\n            // revert fvr transaction\n            users[listings[_listing_idx].requester].balance_fvr += 2 * listings[_listing_idx].cost_fvr;\n            users[listings[_listing_idx].performer].balance_fvr += listings[_listing_idx].cost_fvr;\n            // clean up\n            _wipeListing(_listing_idx);\n            emit ListingAborted(_listing_idx);\n        }\n    }\n\n    // request for completion\n    function requestCompleteListing(uint _listing_idx, address _user_addres) external {\n        require(_isListingActive(_listing_idx),\"Not an active listing\");\n        require(_isUserInvolved(_user_addres, _listing_idx),\"Access denied\");\n\n        // record request\n        if(_user_addres == listings[_listing_idx].requester) {\n            listings[_listing_idx].complete_requester = true;\n        } else {\n            listings[_listing_idx].complete_performer = true;\n        }\n        emit ListingCompleteRequest(_listing_idx, _user_addres);\n\n        if(listings[_listing_idx].complete_requester && listings[_listing_idx].complete_performer) {\n            // finalize transaction\n            users[listings[_listing_idx].requester].balance_fvr += listings[_listing_idx].cost_fvr;\n            users[listings[_listing_idx].performer].balance_fvr += 2 * listings[_listing_idx].cost_fvr;\n            // clean up\n            _wipeListing(_listing_idx);\n            emit ListingCompleted(_listing_idx);\n        }\n    }\n}\n",
  "sourcePath": "/Users/semion/pet-shop-tutorial/contracts/favor.sol",
  "compiler": {
    "name": "solc",
    "version": "0.5.0+commit.1d4f565a.Emscripten.clang"
  },
  "schemaVersion": "3.0.1",
  "updatedAt": "2019-02-13T18:13:33.174Z",
  "devdoc": {
    "methods": {}
  },
  "userdoc": {
    "methods": {}
  }
}